:100000000C942A0018950000189500000C94FA0032
:10001000189500001895000018950000189500002C
:10002000189500001895000018950000189500001C
:10003000189500001895000018950000189500000C
:1000400018950000189500001895000018950000FC
:10005000189500008FE58DBFC8E9E0ED4E2E88E0D1
:100060008EBFD7E0F6E05F2EA89584B7082E877F75
:1000700084BF88E1992781BD91BDEEEFF7E0A0E64E
:10008000B0E088278D933197E9F7662470E071B965
:1000900070E270B98FEF8ABB8FEF81BBC29A80ED9F
:1000A0008093660081ED8093670084B7806484BF8D
:1000B00078947BB770627BBF86E18093630089E1AF
:1000C0008093640080E08093650084E08093610009
:1000D0008DE0809362008CE08093600084E18093E7
:1000E00068000E94EA0000917000013011F00C9449
:1000F0007E000E949A0080E0809370000091710061
:100100000D3211F00C9489000E94A10180E08093CF
:100110007100ADE6B0E08C918BBBAEE6B0E08C91A7
:1001200082BB75B77F70706A75BF88950C94730039
:10013000F894FFCF0E949603A6E6B0E01C910E94BF
:10014000AE0310E00E94AE030E949603A7E6B0E063
:100150001C910E94AE030E94CD03AFE6B0E01C9359
:100160000E94CD03AEE6B0E01C930E94CD03ADE645
:10017000B0E01C930E94CD03ACE6B0E01C930E945B
:10018000CD03ABE6B0E01C930E94CD03AAE6B0E03D
:100190001C930E94CB03A9E6B0E01C930E94A50328
:1001A000ABE6B0E09C910E944703ABE6B0E08C93D5
:1001B000AAE6B0E09C910E944703AAE6B0E08C93C7
:1001C000A9E6B0E09C910E944703A9E6B0E08C93B9
:1001D000089508950E949603A6E6B0E01C910E943F
:1001E000AE0317E00E94AE0310E90E94AE030E9426
:1001F000A50308950F921F922F923F924F925F9204
:100200007F92AF92BF920F931F932F933F934F9381
:100210005F936F937F938F939F93AF93BF93CF938E
:10022000DF93EF93FF938FB78F9381E080937000FC
:10023000A1E7B0E08C918F5F8C938F918FBFFF917E
:10024000EF91DF91CF91BF91AF919F918F917F916E
:100250006F915F914F913F912F911F910F91BF909F
:10026000AF907F905F904F903F902F901F900F9096
:100270001895A5E6B0E08C910E944003A5E6B0E099
:100280008C93A4E6B0E08C910E944003A4E6B0E019
:100290008C93A3E6B0E08C910E944003A3E6B0E00B
:1002A0008C930E949603A6E6B0E01C910E94AE03D8
:1002B00010E00E94AE03A5E6B0E01C910E94AE03E0
:1002C000A4E6B0E01C910E94AE03A3E6B0E01C914E
:1002D0000E94AE030E94A5030895A0E6B0E08C91B1
:1002E0000E944003A0E6B0E08C93A1E6B0E08C91C0
:1002F0000E944003A1E6B0E08C93A2E6B0E08C91AE
:100300000E944003A2E6B0E08C930E949603A6E60A
:10031000B0E01C910E94AE0314E00E94AE03A2E67E
:10032000B0E01C910E94AE03A1E6B0E01C910E94D7
:10033000AE03A0E6B0E01C910E94AE030E94A503AC
:10034000089581E00E946B0381E00E946B0381E0CD
:100350000E946B0381E00E946B0381E00E946B03AB
:1003600081E00E946B0381E00E946B0381E00E94A8
:100370006B0381E00E946B0381E00E946B0381E0CC
:100380000E946B0381E00E946B0381E00E946B037B
:10039000A9E6B0E08C910E944003AA81BB818C93B6
:1003A000A8E6B0E08C910E944003A885B9858C93A3
:1003B000AAE6B0E08C910E944003AE85BF858C9385
:1003C000ABE6B0E08C910E944003AC89BD898C9370
:1003D000AC89BD898C91A88DB98D8C9394E0A88D42
:1003E000B98D0E94710394E0A88DB98D0E947903A4
:1003F000AC89BD898C91AE89BF898C9394E0AE891C
:10040000BF890E947903AE85BF858C91AA89BB897B
:100410008C9394E0AA89BB890E94710394E0AA8915
:10042000BB890E947903AE85BF858C91A889B98963
:100430008C9394E0A889B9890E947903A885B9852D
:100440008C91AC85BD858C9394E0AC85BD850E9474
:10045000710394E0AC85BD850E947903A885B985B8
:100460008C91AA85BB858C9394E0AA85BB850E945C
:100470007903AA81BB818C91AE81BF818C9394E07A
:10048000AE81BF810E94710394E0AE81BF810E9462
:100490007903AA81BB818C91AC81BD818C9394E05E
:1004A000AC81BD810E94790370E07BBB70E072BBC0
:1004B000AE89BF898C9182BB84EF91E00E94570383
:1004C00094E0AE89BF890E947103AC89BD898C918B
:1004D00082BB84EF91E00E94570394E0AE89BF890C
:1004E0000E94790394E0A88DB98D0E947103A88DB4
:1004F000B98D8C9182BBAE89BF898C918BBB84EF07
:1005000091E00E94570394E0AE89BF890E94710375
:10051000A889B9898C9182BBAC89BD898C918BBB30
:1005200084EF91E00E945703A88DB98D8C918BBB0D
:10053000AE85BF858C9182BB84EF91E00E9457030A
:1005400094E0AA89BB890E947103AA89BB898C9116
:1005500082BBA889B9898C918BBB84EF91E00E9402
:100560005703AE85BF858C918BBBAA85BB858C91CB
:1005700082BB84EF91E00E945703AA89BB898C91CA
:100580008BBBA885B9858C9182BB84EF91E00E94DA
:10059000570394E0AC85BD850E947103AA85BB8595
:1005A0008C918BBBAC85BD850C91AC81BD814C9190
:1005B000040FA881B9810C93A881B9818C9182BB69
:1005C00084EF91E00E945703A885B9858C918BBB7D
:1005D000AA81BB818C9182BB84EF91E00E9457037A
:1005E00094E0AE81BF810E947103A881B9818C9192
:1005F0008BBBAE81BF818C9182BB84EF91E00E9466
:100600005703AA81BB818C918BBB70E072BB84EFD6
:1006100091E00E945703AE81BF818C918BBB84EF28
:1006200091E00E94570370E07BBB84EF91E00E9451
:100630005703AC89BD898C918BBBAE85BF858C91EE
:1006400082BBE4E0F0E00E942F0370E07BBB70E02F
:1006500072BB8DE0481A80E0580A6A96089588EEC9
:1006600093E025D03197D9F70895982F82958F7010
:10067000805D8D939F70905D9D9388278C930895E6
:100680004AE0082F0E9481030295802B0895892F4C
:100690008F70905110F0865FFCCF08953197F1F77D
:1006A0000895689462F80895E89462F80895EF93C5
:1006B000FF93EE27E82BE92B31F0E0EDF7E03197DF
:1006C000F1F70197D1F7FF91EF9108955A924A926D
:1006D000480E591E08955A924A92480E8827581E6D
:1006E0000895903029F08C91880F9A95E9F78C93B2
:1006F0000895903029F08C9186959A95E9F78C931E
:100700000895FF93881BF9E0001FFA9511F4FF91FB
:100710000895881F841B18F4840F8894F5CF0894DB
:10072000F3CFA998A898A198A0980895A09AA19805
:1007300003D0A09801D0A19AEF93FF93E6E0F0E0F8
:100740000E944E03FF91EF910895A09AA19AF4DFC1
:10075000A098989BFECFF0DFA198EECF0894111FD0
:1007600001C0110F69F0A09A18F40000A19802C00E
:10077000A19A00C0E1DFA098989BFECFDDDFF1CF0A
:10078000A09AA198D9DFA098989BFECFE894999958
:10079000689462F8D1CF089401C08894331F11E0A7
:1007A000A09AA198C9DFA098989BFECFC5DF889436
:1007B00099990894111FA0F7A09A379510F4A19861
:1007C00001C0A19AB9DFA098989BFECFB5DF08952C
:00000001FF
